:020000022000DC
:106000000000042079630200616302006363020000
:10601000656302006763020069630200000000001C
:106020000000000000000000000000006B630200A0
:106030006D630200000000006F63020071630200E4
:106040006588020073630200396602007363020010
:106050007363020073630200958B02007363020096
:1060600073630200736302007363020073630200D0
:1060700073630200916A020073630200736302009B
:10608000736302005DB70200736302007363020072
:106090009DB7020073630200DD6C030073630200AE
:1060A0007363020073630200736302007363020090
:1060B0007363020073630200000000000000000030
:1060C0007363020073630200736302007363020070
:1060D0007363020073630200736302007363020060
:1060E0007363020073630200F16B040000000000A0
:1060F00000000000736302000000000073630200F0
:10610000000000000000000000000000000000008F
:10611000000000000000000000000000000000007F
:10612000000000000000000000000000000000006F
:10613000000000000000000000000000000000005F
:10614000000000000000000000000000000000004F
:10615000000000000000000000000000000000003F
:10616000000000000000000000000000000000002F
:10617000000000000000000000000000000000001F
:10618000000000000000000000000000000000000F
:1061900000000000000000000000000000000000FF
:1061A00000000000000000000000000000000000EF
:1061B00000000000000000000000000000000000DF
:1061C00000000000000000000000000000000000CF
:1061D00000000000000000000000000000000000BF
:1061E00000000000000000000000000000000000AF
:1061F000000000000000000000000000000000009F
:10620000364937480A1A02D0072291438D4635494C
:1062100035480A1A06D00722914381F309880222E1
:1062200082F3148831483249324A00F045F8324846
:106230003249334A00F040F832483349334A00F0DB
:106240003BF833483349344A00F036F83348344990
:10625000344A00F031F834483449354A00F02CF81B
:1062600034483549354A00F027F835483549002289
:1062700000F02DF834483549002200F028F8344861
:106280003449091A082903DB002202600430016046
:10629000314A90471F482049884205D0026804309F
:1062A00003B4904703BCF7E700208646EC46002085
:1062B00000212A4A9047FEE7884207D0521A05D0AB
:1062C000037801300B700131013AF9D170478842EF
:1062D00002D002700130FAE770470000000004208D
:1062E00000E00320000004200000042054D9040032
:1062F0007436002010370020D8630200D8630200F3
:106300007072040054D904007436002074360020E2
:106310003C7404003C7404003C7404003C740400AD
:106320003C7404003C7404003C7404003C7404009D
:1063300054D90400F0D90400103700201037002091
:106340001037002024570120245701202457012012
:106350002457012024770120A1630200357A03002D
:10636000FEE7FEE7FEE7FEE7FEE7FEE7FEE7FEE705
:10637000FEE7FEE7704700BF1048804710484FF027
:106380000701884385460F4880470F48016841F45C
:1063900070010160BFF34F8FBFF36F8FFFF730BF06
:1063A0000A480B490B4A884207D0521A05D0037895
:1063B00001300B700131013AF9D170477563020069
:1063C0000000042085EE020088ED00E0287404003F
:0863D000603600207436002045
:1063D80000B585B003468DF8073000238DF80F30DF
:1063E8000DF10F03184605F005FB10F047FC0346B6
:1063F80083F00103DBB2002B0DD00DF10703194622
:10640800094808F067FC084808F040FC0346002BE0
:1064180001D000F007FB9DF80F30184605F000FB8F
:1064280000BF05B05DF804FB0873040000B585B033
:10643800034600918DF807309DF80730002B02D0F5
:10644800032B09D02AE0174B1B78012B25D100F02C
:10645800E9FA00F0FDFA20E000238DF80B300DF189
:106468000B03184605F0C6FA0E4B1B78012B0ED10C
:106478000D490E4800F07EFA0390039B002B04D0D0
:106488000B4940F2071013F00FFA00F0B1FA9DF82B
:106498000B30184605F0C4FA00E000BF00BF05B095
:1064A8005DF804FB10370020D96302001137002083
:1064B8004074040000B589B001900091009B0793D7
:1064C800019B1B788DF80C30019B5B680493019B42
:1064D8001B7A8DF81430019BDB680693074A079BEB
:1064E80052F823300649079A51F8221003AA104699
:1064F800984700BF09B05DF804FB00BF643700206F
:106508006C37002000B589B001900091009B07937B
:10651800019B1B788DF80C30019B5B680493019BF1
:106528009B68DBB28DF81430019BDB680693074A41
:10653800079B52F823300649079A51F8221003AAFC
:106548001046984700BF09B05DF804FB6437002087
:106558006C37002030B58FB0039002910192039BF5
:106568001B780C932C490C9B019A41F82320029B21
:106578001A692A490C9B41F823200C9B012B07D14F
:10658800029B5B7F002B03D12549762013F08CF901
:10659800029B5B7F1946234A0C9B13440A461A70D8
:1065A800029B04AC1D460FCD0FC495E80F0084E88C
:1065B8000F000C9B089300230D93039B1B781A462E
:1065C800184B9B5C002B0DD0039B181D019B002BC7
:1065D80001D0154A00E0002204AB194601F038FC4E
:1065E8000D9014E0039B1B781A460E4B9B5C002B06
:1065F8000DD1039B03F10C00019B002B01D00B4A2A
:1066080000E0002204AB194600F0C2FD0D900D9B7E
:1066180018460FB030BD00BF643700206C3700202B
:106628009874040074370020BD6402000D650200F0
:1066380008B5064B1B68002B03D10549512013F000
:1066480033F9024B1B68984700BF08BD7837002014
:10665800F474040082B00190019B044A934201D172
:10666800034B00E00023184602B0704700200040AA
:106678007837002000B587B001900091019B002B6E
:1066880003D11C49772013F00FF90198FFF7E2FFB7
:106698000590059B002B25D000238DF8133000238F
:1066A8008DF80B300DF10B03184605F0A3F9059B87
:1066B8001B79002B03D001238DF8133005E0059BCF
:1066C800009A1A60059B01221A719DF80B30184632
:1066D80005F0A6F99DF81330002B03D0112303937E
:1066E800039B02E000230393039B184607B05DF861
:1066F80004FB00BFF474040000B585B00190019B51
:10670800002B03D10A499B2013F0CEF80198FFF71C
:10671800A1FF0390039B002B05D0039B00221A6066
:10672800039B00221A7100BF05B05DF804FB00BF8F
:10673800F474040082B003468DF807309DF80730E2
:1067480003F01F0205499DF907305B09012000FA93
:1067580002F241F8232000BF02B0704700E100E0D8
:1067680082B003468DF807309DF8073003F01F020A
:1067780006499DF907305B09012000FA02F220332F
:1067880041F8232000BF02B0704700BF00E100E0DD
:1067980082B003468DF807309DF8073003F01F02DA
:1067A80006499DF907305B09012000FA02F26033BF
:1067B80041F8232000BF02B0704700BF00E100E0AD
:1067C80082B0034600918DF807309DF90730002B01
:1067D8000CDA009BDAB20C499DF8073003F00F037E
:1067E800043B5201D2B20B441A7609E0009BDAB29C
:1067F80006499DF907305201D2B20B4483F80023B1
:1068080000BF02B0704700BF00ED00E000E100E00B
:1068180000B583B003460A468DF8073013468DF855
:1068280006309DF80630012B03D99DF80630032B5E
:106838000BD99DF80630042B03D99DF80630072B99
:1068480003D908496B2013F02FF89DF806209DF90D
:10685800073011461846FFF7B3FF00BF03B05DF8D5
:1068680004FB00BF4C75040000B583B003468DF8E7
:1068780007309DF907301846FFF78AFF9DF9073062
:106888001846FFF757FF00BF03B05DF804FB00B5DB
:1068980083B003468DF807309DF907301846FFF797
:1068A8005FFF00BF03B05DF804FB000082B00190F9
:1068B800034A019BC2F8043300BF02B0704700BF0F
:1068C80000D0004082B00190034A019BC2F808330F
:1068D80000BF02B0704700BF00D0004082B003463E
:1068E8008DF807309DF8073003F1804303F55043D6
:1068F80001221A6000BF02B0704784B00346ADF8A9
:106908000630BDF8063003F1804303F550430022FA
:106918001A60BDF8063003F1804303F550431B6845
:106928000393039B00BF04B07047000082B001903E
:10693800054BD3F80022019BDB4303491340C1F800
:10694800003200BF02B0704700D00040024BD3F8BD
:106958000835DBB21846704700D00040044BD3F826
:106968000435034A43F00103C2F8043500BF7047F9
:1069780000D0004000B583B001900091019B002B2E
:1069880003D118493E2012F08FFF009B002B03D142
:1069980014493F2012F088FF134B1B78002B01D0BD
:1069A80085231BE0114A009B1360019B1B7803F0B1
:1069B8000103DBB2002B01D0FFF7D0FF0120FFF766
:1069C800B5FF019B5B7819460D20FFF721FF0D20CD
:1069D800FFF74AFF044B01221A700023184603B040
:1069E8005DF804FB8C750400803700208437002094
:1069F80008B50A4B1B78012B03D00949562012F021
:106A080053FF4FF48070FFF778FF0120FFF74EFF28
:106A18000020FFF763FF00BF08BD00BF80370020DC
:106A28008C75040008B5084B1B78012B03D0074967
:106A38005E2012F039FF0120FFF744FF0420FFF722
:106A48004DFF00BF08BD00BF803700208C750400D3
:106A580008B50B4B1B78012B03D00A49652012F0AF
:106A680023FF0120FFF72EFF0420FFF737FF0D203B
:106A7800FFF70DFF024B00221A7000BF08BD00BFD0
:106A8800803700208C75040000B583B04FF4807007
:106A9800FFF733FFFFF75AFF03468DF80730054B22
:106AA8001B689DF807201046984700BF03B05DF8A3
:106AB80004FB00BF8437002082B003468DF80730FE
:106AC8009DF8073003F01F0205499DF907305B095F
:106AD800012000FA02F241F8232000BF02B07047FB
:106AE80000E100E082B003468DF807309DF80730DA
:106AF80003F01F0206499DF907305B09012000FADF
:106B080002F2203341F8232000BF02B0704700BFD3
:106B180000E100E082B003468DF807309DF80730A9
:106B280003F01F0206499DF907305B09012000FAAE
:106B380002F2603341F8232000BF02B0704700BF63
:106B480000E100E082B0034600918DF807309DF91E
:106B58000730002B0CDA009BDAB20C499DF807309D
:106B680003F00F03043B5201D2B20B441A7609E03A
:106B7800009BDAB206499DF907305201D2B20B44A4
:106B880083F8002300BF02B0704700BF00ED00E0AB
:106B980000E100E082B00190019B1B0B5BB218463C
:106BA80002B0704700B583B003460A468DF8073037
:106BB80013468DF806309DF80630012B03D99DF851
:106BC8000630032B0BD99DF80630042B03D99DF80A
:106BD8000630072B03D908496B2012F065FE9DF893
:106BE80006209DF9073011461846FFF7ABFF00BF96
:106BF80003B05DF804FB00BFE075040000B583B086
:106C080003468DF807309DF907301846FFF782FFD5
:106C18009DF907301846FFF74FFF00BF03B05DF836
:106C280004FB00B583B003468DF807309DF90730A3
:106C38001846FFF757FF00BF03B05DF804FB84B0A8
:106C480001900B46ADF80230BDF80230019A1344AA
:106C580000221A60BDF80230019A13441B6803939E
:106C6800039B00BF04B0704782B001900B46ADF89B
:106C78000230BDF80230019A13441B68002B14BF80
:106C880001230023DBB2184602B0704782B001909E
:106C98000091019B009AC3F8042300BF02B070471B
:106CA80082B001900091019BD3F80423009B13400C
:106CB800002B14BF01230023DBB2184602B0704733
:106CC80082B001900091019B009AC3F8082300BF8D
:106CD80002B0704784B00190019BD3F880340393CD
:106CE800019B039AC3F88024039B184604B070479D
:106CF80082B00190019B0422C3F8002500BF02B0B6
:106D0800704782B00190019B0022C3F8002500BFA4
:106D180002B0704784B0039002910192039B019ADC
:106D2800C3F81425039B029AC3F80C2500BF04B0CE
:106D3800704700B583B001904FF0FF324FF0FF313C
:106D48000198FFF7E7FF00BF03B05DF804FB82B0CE
:106D58000190019BD3F80C35184602B0704782B0F9
:106D68000190019BD3F81435184602B0704782B0E1
:106D78000190019BD3F80835184602B0704782B0DD
:106D88000190019BD3F81035184602B0704784B0C3
:106D9800039002910192039B029AC3F80825039B72
:106DA800019AC3F8102500BF04B0704700B583B03E
:106DB80001904FF0FF324FF0FF310198FFF7E7FFE6
:106DC80000BF03B05DF804FB82B00190019BD3F8CB
:106DD8001835DBB2184602B0704782B001900B46F6
:106DE8008DF803309DF80320019BC3F81C2500BFD4
:106DF80002B0704782B001900B468DF803309DF8C1
:106E08000330019A134401221A6000BF02B0704790
:106E180082B001900B468DF8033013468DF802308E
:106E28009DF803209DF802301343DBB21A46019BFC
:106E3800C3F86C2500BF02B0704782B00190009182
:106E4800019B009AC3F8242500BF02B070470000D8
:106E580000B583B00190019B1B682F2B04D90B4907
:106E68004FF4E87012F020FD019B1B681F2B02D81D
:106E78004FF0A04306E0019B1B6803F01F02019B33
:106E88001A60034B184603B05DF804FB1C76040037
:106E98000003005000B585B00190084611461A4617
:106EA80003468DF803300B468DF8023013468DF8F3
:106EB800013001AB1846FFF7CBFF03909DF8032084
:106EC8009DF802305B001A439DF801309B001A437D
:106ED8009DF818301B0242EA03019DF81C301B0480
:106EE800019A1943039B02F5E07243F8221000BF90
:106EF80005B05DF804FB00B585B00390002301934D
:106F0800002300930023012201210398FFF7C2FF09
:106F180000BF05B05DF804FB00B585B003900B46D3
:106F28008DF80B309DF80B2000230193002300936C
:106F38001346002200210398FFF7ACFF00BF05B0FD
:106F48005DF804FB00B585B003900023019300238E
:106F580000930023012200210398FFF79BFF00BF45
:106F680005B05DF804FB00B585B0019001AB18468B
:106F7800FFF76EFF0390019B012202FA03F3194603
:106F8800039800F004F800BF05B05DF804FB82B078
:106F980001900091019B009AC3F8082500BF02B038
:106FA800704700B583B001900091009B1B68B3F156
:106FB800FF3F09D0009B1B681846FFF7D4FF009BD2
:106FC8001B681846FFF797FF009B5B68B3F1FF3F0C
:106FD80005D0009B5B6800211846FFF79DFF019BC9
:106FE8001A68009B9B6919461046FFF726FF019B0C
:106FF8001868009B597D009B1B7D1A46FFF708FF08
:10700800019B1868009B1968009B5B681A46FFF78C
:1070180081FE009B1B7D012B22D1009B9B68B3F155
:10702800FF3F05D0009B9B6800211846FFF774FFBF
:10703800009BDB68B3F1FF3F09D0009BDB68184673
:10704800FFF791FF009BDB681846FFF754FF019B91
:107058001868009BD968009B9B681A46FFF797FE43
:1070680000BF03B05DF804FB00B583B001900B4688
:107078008DF80330019B1B684FF48E711846FFF79B
:10708800DEFD019B1B684FF4A2711846FFF7D7FD80
:10709800019B1B680E491846FFF7F8FD019B1B680A
:1070A8001846FFF777FD03461A469DF80330194640
:1070B8001046FFF777FD019B1B681846FFF76AFD2E
:1070C80003461846FFF79AFD00BF03B05DF804FBBE
:1070D8008000020000B583B00190019B1B6808493D
:1070E8001846FFF7EDFD019B1B681846FFF752FD98
:1070F80003461846FFF795FD00BF03B05DF804FB93
:107108008402020000B587B00190019B1B681846F5
:10711800FFF71DFE0590019B1B681846FFF71FFE31
:107128000490019B1B681846FFF721FE0390019B02
:107138001B681846FFF723FE0290019B1B68184640
:10714800FFF7F7FD019B1B681846FFF72FFE059B0D
:10715800B3F1FF3F02D00598FFF7F4FE049BB3F1AB
:10716800FF3F02D00498FFF7EDFE029BB3F1FF3F0B
:1071780002D00298FFF7E6FE039BB3F1FF3F02D06F
:107188000398FFF7DFFE00BF07B05DF804FB0000BF
:1071980000B587B0039002910192029B002B03D1A6
:1071A8002D49AA2012F080FB039B1B791A462C2339
:1071B80003FB02F3294A1344049300230593049B19
:1071C80093F82A30002B03D008230593059B3EE053
:1071D800039B1A68039B1B791946214B53F82130EE
:1071E80019461046FFF746FA0346002B03D0112331
:1071F8000593059B2BE002990398FFF7D2FE049BA9
:10720800019A5A60029B1A69049B1A60049B5B6886
:10721800002B05D0029B1B7F19460398FFF724FF1C
:10722800039B1B681846FFF763FD049B00229A61C5
:10723800049B0022DA61049B002283F82920049B26
:1072480000225A61049B012283F82A20059B1846D4
:1072580007B05DF804FB00BF6076040088370020A3
:10726800B476040000B585B00190019B1B791A46DD
:107278002C2303FB02F3114A13440393019B1B685D
:107288001846FFF73EFD039B5B68002B02D0019870
:10729800FFF720FF0198FFF735FF019B1B68184691
:1072A800FFF72AFA039B002283F82A20039B002277
:1072B8005A6000BF05B05DF804FB00BF88370020A6
:1072C80000B585B0019000914FF48E710198FFF7D9
:1072D800B6FC009B9A68009B1B6A13441B788DF8C8
:1072E8000F30009B1B6A5A1C009B1A629DF80F30D6
:1072F80019460198FFF771FD00BF05B05DF804FB62
:1073080000B583B00190009116E0009B93F82830F7
:10731800DBB2002B01D0002315E04FF48E710198E9
:10732800FFF7A2FC034683F00103DBB2002BECD18C
:1073380000990198FFF7C4FF009B1A6A009B5B69DC
:107348009A42EAD30123184603B05DF804FB000013
:1073580000B587B0039002910192039B1B791A46EE
:107368002C2303FB02F33C4A13440493049B93F835
:107378002A30012B04D0394940F2151012F094FA42
:10738800029B002B04D135494FF48B7012F08CFA14
:10739800019B002B04D1314940F2171012F084FAF6
:1073A800039800F05DF80346002B03D011230593E2
:1073B800059B4CE0049B019A5A61049B029A9A60CF
:1073C800049B00221A62049B002283F828200023D1
:1073D8000593039B1B684FF48E711846FFF72FFC2B
:1073E800039B1B6808211846FFF704FD039B1B68D5
:1073F80004991846FFF764FF049B5B68002B25D1AE
:10740800039B1B6804991846FFF77AFF034683F02D
:107418000103DBB2002B02D00F23059313E000BF5A
:10742800039B1B684FF48E711846FFF71DFC03463B
:1074380083F00103DBB2002BF2D1039B1B680C2104
:107448001846FFF7D7FC049B00225A61059B184693
:1074580007B05DF804FB00BF8837002060760400A1
:1074680082B00190019B1B791946074A2C2303FB24
:1074780001F3134414331B68002B14BF01230023AA
:10748800DBB2184602B070478837002010B582B0CA
:1074980001900091009B9B69002B08D14FF48471E7
:1074A8000198FFF7CCFB0198FFF78EFC13E04FF42F
:1074B80084710198FFF7C3FB009BDA68009B5B6A45
:1074C800D4180198FFF780FC03462370009B5B6A81
:1074D8005A1C009B5A6202B010BD00B589B00390D7
:1074E8000291019201238DF81030029B0693019BB3
:1074F8000593039B5B68039A116804AA1046984792
:1075080000BF09B05DF804FB00B587B00190009199
:1075180000238DF80830009B0493019B9B6803931C
:10752800019B00225A61019B5B68019A116802AABB
:107538001046984700BF07B05DF804FB00B589B056
:10754800019000914FF400710198FFF7A9FB0346E1
:10755800002B39D04FF492710198FFF785FB034651
:10756800002B31D04FF492710198FFF768FB4FF46C
:1075780001710198FFF7A4FB009B93F8293083F071
:107588000103DBB2002B03D004210198FFF732FC82
:1075980002238DF808300198FFF79CFB03460593FA
:1075A800009B9B690493009BDB680393009B00226C
:1075B8009A61009B0022DA61009B5B68009A11685F
:1075C80002AA1046984752E004210198FFF768FB89
:1075D8000346002B4BD04FF484710198FFF744FB0E
:1075E8000346002B43D000990198FFF74FFF009BFB
:1075F8009A69009B5B6A9A4239D1009BDB69002B30
:1076080019D0009BDB680793009B5B6A0693009B7D
:10761800DA69009B9A61009B1A69009BDA60009BFB
:107628000022DA61009B00225A62079A06990098A4
:10763800FFF753FF1BE0009B93F8293083F0010309
:10764800DBB2002B03D004210198FFF7D3FB4FF4E2
:1076580001710198FFF734FB009B00229A61009B9F
:10766800596A009BDB681A460098FFF736FF4FF40B
:107678008E710198FFF7F8FA0346002B22D0009B81
:107688001A6A009B5B699A420DD2009B93F82830D6
:10769800DBB283F00103DBB2002B04D00099019820
:1076A800FFF70EFE0EE04FF48E710198FFF7C7FA50
:1076B800009B5B69002B05D0009B5B69194600980D
:1076C800FFF722FF4FF4A2710198FFF7CDFA0346A6
:1076D800002B1CD04FF4A2710198FFF7B0FA009B61
:1076E80093F82930002B03D000210198FFF782FB83
:1076F800009B9B69002B0AD0009B00229A61009B8B
:10770800596A009BDB681A460098FFF7E6FE00BF3F
:1077180009B05DF804FB000008B503490348FFF70A
:107728000DFF00BF08BD00BF8837002000200040C3
:1077380082B003468DF807309DF8073003F01F022A
:1077480005499DF907305B09012000FA02F241F86A
:10775800232000BF02B0704700E100E082B003467A
:107768008DF807309DF8073003F01F0206499DF990
:1077780007305B09012000FA02F2203341F8232088
:1077880000BF02B0704700BF00E100E082B00346CE
:107798008DF807309DF8073003F01F0206499DF960
:1077A80007305B09012000FA02F2603341F8232018
:1077B80000BF02B0704700BF00E100E082B003469E
:1077C80000918DF807309DF90730002B0CDA009BEB
:1077D800DAB20C499DF8073003F00F03043B52015D
:1077E800D2B20B441A7609E0009BDAB206499DF939
:1077F80007305201D2B20B4483F8002300BF02B015
:10780800704700BF00ED00E000E100E082B00190A9
:10781800019B03F06043B3F1005F0CBF0123002319
:10782800DBB2184602B0704782B00190019B1B0B77
:107838005BB2184602B0704700B583B003460A46EB
:107848008DF8073013468DF806309DF80630012B69
:1078580003D99DF80630032B0BD99DF80630042B6D
:1078680003D99DF80630072B03D908496B2012F07D
:107878001BF89DF806209DF9073011461846FFF7BA
:107888009DFF00BF03B05DF804FB00BFB87604009D
:1078980000B583B003468DF807309DF907301846C8
:1078A800FFF774FF9DF907301846FFF741FF00BF47
:1078B80003B05DF804FB00B583B003468DF80730CC
:1078C8009DF907301846FFF749FF00BF03B05DF880
:1078D80004FB84B001900B46ADF80230BDF80230CD
:1078E800019A134400221A60BDF80230019A134429
:1078F8001B680393039B00BF04B0704782B00190DC
:107908000B46ADF80230BDF80230019A13441B68EB
:10791800002B14BF01230023DBB2184602B07047C6
:1079280082B001900091019BD3F80022009BDB43B9
:107938001A40019BC3F8002200BF02B0704782B012
:1079480001900091019B009AC3F8042300BF02B084
:10795800704782B001900091019B009AC3F80823F8
:1079680000BF02B0704784B00190019BD3F8803407
:107978000393019B039AC3F88024039B184604B021
:10798800704782B00190019B0822C3F8002500BF10
:1079980002B0704782B00190019B0022C3F8002515
:1079A80000BF02B0704784B0039002910192039B1C
:1079B800029AC3F80C25039B019AC3F8142500BF4B
:1079C80004B0704700B583B001904FF0FF324FF01C
:1079D800FF310198FFF7E7FF00BF03B05DF804FB34
:1079E80082B00190019BD3F80C35184602B070475D
:1079F80082B00190019BD3F81435184602B0704745
:107A080082B00190019BD3F80835184602B0704740
:107A180082B00190019BD3F81035184602B0704728
:107A280084B0039002910192039B029AC3F808253F
:107A3800039B019AC3F8102500BF04B0704700B536
:107A480083B001904FF0FF324FF0FF310198FFF7FC
:107A5800E7FF00BF03B05DF804FB82B001900B465E
:107A68008DF803309DF80330019A134401221A60FF
:107A780000BF02B0704782B001900B468DF803300A
:107A880013468DF802309DF803209DF80230134309
:107A9800DBB21A46019BC3F86C2500BF02B07047E1
:107AA80082B001900091019B009AC3F8242500BF81
:107AB80002B0704784B0039002910192029A039B2E
:107AC800C3F84425039B019AC3F8482500BF04B0B6
:107AD800704782B00190019BD3F84C35184602B02C
:107AE800704782B00190019BD3F83C35184602B02C
:107AF8007047000000B583B00190019B1B682F2BD5
:107B080004D90B494FF4E87011F0CEFE019B1B68B5
:107B18001F2B02D84FF0A04306E0019B1B6803F01F
:107B28001F02019B1A60034B184603B05DF804FB63
:107B3800F47604000003005000B585B001900846B3
:107B480011461A4603468DF803300B468DF802306D
:107B580013468DF8013001AB1846FFF7CBFF0390B1
:107B68009DF803209DF802305B001A439DF8013010
:107B78009B001A439DF818301B0242EA03019DF846
:107B88001C301B04019A1943039B02F5E07243F869
:107B9800221000BF05B05DF804FB00B585B0039066
:107BA800002301930023009300230122012103985D
:107BB800FFF7C2FF00BF05B05DF804FB00B585B054
:107BC80003900B468DF80B309DF80B200023019392
:107BD800002300931346002200210398FFF7ACFF0F
:107BE80000BF05B05DF804FB00B585B00390002325
:107BF8000193002300930023012200210398FFF73B
:107C08009BFF00BF05B05DF804FB00B585B001908F
:107C180001AB1846FFF76EFF0390019B012202FAA1
:107C280003F31946039800F004F800BF05B05DF8A7
:107C380004FB82B001900091019B009AC3F80825CB
:107C480000BF02B0704700B583B001900091009B5F
:107C58001B68B3F1FF3F09D0009B1B681846FFF76C
:107C6800D4FF009B1B681846FFF797FF009B5B68D3
:107C7800B3F1FF3F05D0009B5B6800211846FFF772
:107C88009DFF019B1A68009B9B6919461046FFF7E8
:107C980007FF019B1868009B597D009B1B7D1A46B6
:107CA800FFF7E9FE019B1868009B1968009B5B6859
:107CB8001A46FFF778FE009B1B7D012B22D1009B03
:107CC8009B68B3F1FF3F05D0009B9B6800211846D5
:107CD800FFF774FF009BDB68B3F1FF3F09D0009BFF
:107CE800DB681846FFF791FF009BDB681846FFF733
:107CF80054FF019B1868009BD968009B9B681A4633
:107D0800FFF78EFE00BF03B05DF804FB00B583B03B
:107D180001900B468DF80330019B1B684FF4887166
:107D28001846FFF7D6FD019B1B684FF49071184663
:107D3800FFF7CFFD019B1B684FF492711846FFF7C0
:107D4800C8FD019B1B684FF4A2711846FFF7C1FDDF
:107D5800019B1B680E491846FFF7F1FD019B1B6844
:107D68001846FFF761FD03461A469DF80330194689
:107D78001046FFF761FD019B1B681846FFF754FD8D
:107D880003461846FFF784FD00BF03B05DF804FB07
:107D98001003020000B583B00190019B1B680849DD
:107DA8001846FFF7D6FD019B1B681846FFF73CFDF8
:107DB80003461846FFF77FFD00BF03B05DF804FBDC
:107DC8001003020000B587B00190019B1B6818469C
:107DD800FFF706FE0590019B1B681846FFF708FE93
:107DE8000490019B1B681846FFF70AFE0390019B4D
:107DF8001B681846FFF70CFE0290019B1B6818468B
:107E0800FFF7E0FD019B1B681846FFF718FE059B6E
:107E1800B3F1FF3F02D00598FFF7E6FE049BB3F1EC
:107E2800FF3F02D00498FFF7DFFE029BB3F1FF3F4C
:107E380002D00298FFF7D8FE039BB3F1FF3F02D0B0
:107E48000398FFF7D1FE00BF07B05DF804FB000000
:107E580000B587B0039002910192029B002B03D1D9
:107E68002B49BC2011F020FD039B1B791A461346B1
:107E7800DB0013449B00274A134404930023059313
:107E8800049B93F82030002B03D008230593059B0F
:107E98003AE0039B1A68039B1B7919461E4B53F85B
:107EA800213019461046FEF7E5FB0346002B03D0A8
:107EB80011230593059B27E002990398FFF7C3FE5A
:107EC800049B019A5A60029B1A69049B1A60049BDE
:107ED8005B68002B05D0029B1B7F19460398FFF7B0
:107EE80015FF039B1B681846FFF74BFD049B0022F8
:107EF8009A61049B0022DA61049B00225A61049B68
:107F0800012283F82020059B184607B05DF804FB82
:107F180038770400B43700209077040000B585B0A6
:107F28000190019B1B791A461346DB0013449B0002
:107F3800104A13440393019B1B681846FFF72AFD58
:107F4800039B5B68002B02D00198FFF723FF019881
:107F5800FFF738FF019B1B681846FEF7CDFB039B14
:107F6800002283F82020039B00225A6000BF05B03E
:107F78005DF804FBB437002000B589B00390029186
:107F88000192039B1B791A461346DB0013449B009E
:107F98004C4A13440493049B93F82030012B04D0DB
:107FA800494940F20D1011F07FFC029B002B04D1CF
:107FB80045494FF4877011F077FC019B002B04D1E1
:107FC800414940F20F1011F06FFC039B1B79002B05
:107FD80003D1019BB3F5803F04D33B494FF488702C
:107FE80011F062FC0298FFF711FC034683F00103CD
:107FF800DBB2002B03D010230693069B5EE00398A8
:1080080000F064F80346002B03D011230693069B67
:1080180054E0049B019A5A61049B029A9A600023D7
:108028000693039B1B684FF490711846FFF751FCA9
:10803800039B1B684FF4AC711846FFF74AFC039B7F
:108048001868049B9968049B5B691A46FFF732FD20
:10805800039B1B6808211846FFF7FFFC049B5B681D
:10806800002B2AD1039B1B684FF490711846FFF729
:1080780045FC03468DF81730039B1B684FF4AC7121
:108088001846FFF73BFC03468DF81F309DF8173064
:1080980083F00103DBB2002B06D09DF81F3083F07C
:1080A8000103DBB2002BDDD19DF81F30002B01D07E
:1080B8000F230693049B00225A61069B184609B0B9
:1080C8005DF804FBB43700203877040082B00190D3
:1080D800019B1B791946084A0B46DB000B449B00A1
:1080E800134414331B68002B14BF01230023DBB295
:1080F800184602B0704700BFB437002000B589B0F9
:1081080003900291019201238DF81030029BDBB29B
:108118008DF81830019B0593039B5B68039A1168DF
:1081280004AA1046984700BF09B05DF804FB00B5E3
:1081380087B00190009100238DF80830009BDBB2D6
:108148008DF81030019B9B680393019B00225A61B4
:10815800019B5B68019A116802AA1046984700BF04
:1081680007B05DF804FB00B589B0019000914FF4A9
:1081780092710198FFF7C2FB0346002B24D04FF4FD
:1081880092710198FFF7A5FB02238DF8083001983A
:10819800FFF7E9FB034605930198FFF7A2FC0346A6
:1081A800DBB28DF81030009BDB680393009B002244
:1081B8009A61009B0022DA61009B5B68009A116853
:1081C80002AA104698473BE04FF488710198FFF7E0
:1081D80095FB0346002B33D04FF488710198FFF7C5
:1081E80078FB0198FFF77DFC0790009B9B69079A35
:1081F8009A4225D1009BDB69002B17D0009BDB68D6
:10820800069320210198FFF78BFB009BDA69009BFE
:108218009A61009B1A69009BDA60009B0022DA6170
:10822800069A07990098FFF769FF09E0009B00226A
:108238009A61009BDB681A4607990098FFF75EFF72
:108248004FF4A2710198FFF759FB0346002B15D094
:108258004FF4A2710198FFF73CFB009B9B69002B30
:108268000CD0009B00229A610198FFF73AFC014666
:10827800009BDB681A460098FFF740FF4FF49071A7
:108288000198FFF73BFB0346002B10D04FF4907189
:108298000198FFF71EFB009B5B69002B07D0019834
:1082A800FFF717FC034619460098FFF740FF00BF89
:1082B80009B05DF804FB000008B503490348FFF75F
:1082C80052FF00BF08BD00BFB437002000200040A7
:1082D80082B003468DF807309DF8073003F01F027F
:1082E80006499DF907305B09012000FA02F22033A4
:1082F80041F8232000BF02B0704700BF00E100E052
:1083080008B50EF0BBFC034683F00103DBB2002B7B
:1083180003D10549792011F0C7FA00F087FA034B19
:1083280000229A7000BF08BD9C770400D83700204F
:1083380000B583B000230193144B1B78002B02D0A7
:10834800852301931CE0114B00229A600F4B0022F9
:108358005A600E4B00221A610C4B0022DA600C485E
:1083680000F02AFA01900EF089FC034683F001031D
:10837800DBB2002B01D000F045FA044B01221A7041
:10838800019B184603B05DF804FB00BFD8370020F6
:108398007184020084B00190019B1B680393039BC6
:1083A800002B03D0039B1A68019B1A60039B184695
:1083B80004B0704700B583B0164B1B78002B04D16E
:1083C80015494FF4857011F06FFA124BDB68002BDA
:1083D80004D1114940F20B1011F066FA00238DF810
:1083E80007300DF10703184603F004FB094BDB685F
:1083F800013B084AD360074BDB68002B01D1FFF72C
:108408007FFF9DF80730184603F00AFB00BF03B052
:108418005DF804FBD83700209C77040000B585B0D0
:1084280003468DF807309DF80730002B02D10C4B1E
:10843800039301E00B4B03930398FFF7ABFF029004
:10844800029B002B06D0029B5B689DF80720104614
:108458009847F1E700BF00BF05B05DF804FB00BF17
:10846800E0370020E837002000B583B003468DF8D8
:1084780007309DF80730002B05D10A4B01225A70AE
:108488000020FFF7CBFF9DF80730012B05D1054BE6
:1084980001229A700120FFF7C1FF00BF03B05DF809
:1084A80004FB00BFD837002000B583B001900091CD
:1084B800019B002B05D1054B01225A700020FFF7C4
:1084C800ADFF00BF03B05DF804FB00BFD837002044
:1084D80000B585B0034600918DF807309DF8073048
:1084E800012B08D0032B25D0002B00D030E0002032
:1084F800FFF7EEFE2CE000238DF80F300DF10F038F
:10850800184603F077FA144B1B7883F00103DBB2AB
:10851800002B01D0FFF70CFF0F4BDB6801330E4A2D
:10852800D3600D4B01229A709DF80F30184603F066
:1085380077FA0DE0084B1B78002B04D1074940F26D
:10854800452011F0B1F900F05DF9FFF733FF00BFE6
:1085580000BF05B05DF804FBD83700209C77040005
:1085680082B003468DF807309DF8073003F01F02EC
:1085780005499DF907305B09012000FA02F241F82C
:10858800232000BF02B0704700E100E082B003463C
:108598008DF807309DF8073003F01F0206499DF952
:1085A80007305B09012000FA02F2603341F823200A
:1085B80000BF02B0704700BF00E100E082B0034690
:1085C80000918DF807309DF90730002B0CDA009BDD
:1085D800DAB20C499DF8073003F00F03043B52014F
:1085E800D2B20B441A7609E0009BDAB206499DF92B
:1085F80007305201D2B20B4483F8002300BF02B007
:10860800704700BF00ED00E000E100E000B583B076
:1086180003460A468DF8073013468DF806309DF854
:108628000630012B03D99DF80630032B0BD99DF892
:108638000630042B03D99DF80630072B03D90849C7
:108648006B2011F031F99DF806209DF9073011468D
:108658001846FFF7B3FF00BF03B05DF804FB00BF87
:10866800F477040000B583B003468DF807309DF910
:1086780007301846FFF78AFF9DF907301846FFF7BD
:108688006FFF00BF03B05DF804FB000082B0034633
:108698008DF807300F4A9DF90730002B00DA1F3399
:1086A8005B115BB252F823209DF90730594203F061
:1086B8001F0301F01F0158BF4B425BB222FA03F3BC
:1086C80003F00103002B14BF01230023DBB218467B
:1086D80002B0704700E100E082B001904FF08042A4
:1086E800019BC2F8083300BF02B0704782B003464E
:1086F8008DF807309DF8073003F1804301221A6096
:1087080000BF02B0704784B00346ADF80630BDF82C
:10871800063003F1804300221A60BDF8063003F1E9
:1087280080431B680393039B00BF04B0704782B06B
:108738000346ADF80630BDF8063003F180431B68E8
:10874800002B14BF01230023DBB2184602B0704788
:1087580082B001904FF08042019BC2F8183500BFEB
:1087680002B070474FF08043D3F818341B0C03F065
:108778000103002B14BF01230023DBB21846704706
:1087880000B583B006238DF807300020FFF77EFF81
:10879800034683F00103DBB2002B08D09DF80730B5
:1087A80019460020FFF732FF0020FFF75BFF00BFEC
:1087B80003B05DF804FB000000B585B00190019B93
:1087C800002B03D10D49A22011F06EF8002303936A
:1087D8000B4B1B79002B02D08523039308E0084A32
:1087E800019B1360064B01221A71054B00225A7136
:1087F800039B184605B05DF804FB00BF38780400F9
:10880800EC37002008B5074B1B79002B03D106492C
:10881800BB2011F049F8FFF7B3FF0120FFF798FFDD
:1088280000BF08BDEC3700203878040008B5094BB4
:108838001B79002B03D10849F22011F035F80C20E0
:10884800FFF754FF00BFFFF78DFF0346002BFAD157
:1088580000BF08BDEC3700203878040008B54FF495
:108868008070FFF764FF0346002B14D04FF480702C
:10887800FFF749FF0120FFF72FFF114B5B7983F0CA
:108888000103DBB2002B06D00D4B01225A710C4BB1
:108898001B68002098474FF48270FFF748FF034693
:1088A800002B0AD04FF48270FFF72DFF0220FFF74C
:1088B80013FF034B1B680120984700BF08BD00BF8A
:1088C800EC37002000B583B00346ADF80630BDF89C
:1088D8000630184600F026F803461B68012B0CBF2B
:1088E80001230023DBB2184603B05DF804FB00B592
:1088F80085B00346ADF80630BDF80630184600F0DE
:1089080011F803461A4600231360BDF806301846CE
:1089180000F008F803461B680393039B00BF05B0EB
:108928005DF804FB82B00346ADF80630BDF80630AA
:1089380003F1804303F5C043184602B070470000B6
:1089480082B00190034BD3F80423019B13401846CF
:1089580002B070470060004082B00190054A019B58
:1089680003F5A27352F823301B0A03F03F0318469D
:1089780002B070470060004082B00190064A019B37
:1089880003F5A27352F823301B0C03F00303DBB288
:10899800184602B0704700BF0060004000B583B0C1
:1089A8000190019B1B682F2B04D90B494FF4E870E9
:1089B80010F07AFF019B1B681F2B02D84FF0A043D1
:1089C80006E0019B1B6803F01F02019B1A60034B22
:1089D800184603B05DF804FBCC780400000300508F
:1089E80000B585B001900B468DF8033001AB1846F1
:1089F800FFF7D4FF0390019A039B02F5E07253F846
:108A08002230019A23F44031039B02F5E07243F8C7
:108A18002210019A039B02F5E07253F822309DF868
:108A2800032012041146019A1943039B02F5E072D0
:108A380043F8221000BF05B05DF804FB00B585B00F
:108A4800019001AB1846FFF7A9FF0390019A039B19
:108A580002F5E07253F822301B0C03F00303DBB27B
:108A6800184605B05DF804FB82B00190019BD3F86D
:108A78001035184602B0704700B589B003900291CE
:108A88000192174A05AB92E8030083E80300039AB2
:108A9800029B1344022B04D9124940F2F12010F032
:108AA80003FF039B079311E0079B9B0008AA13444D
:108AB80053F80C3C1846FFF7D7FF0246019B1A6093
:108AC800019B04330193079B01330793039A029B8D
:108AD8001344079A9A42E7D300BF09B05DF804FB34
:108AE80008790400CC78040084B001900091009BC0
:108AF8000393019BDB080293019B03F00703019397
:108B08000122019B02FA03F30399029A0A4412789C
:108B18001340184604B0704784B001900091009B40
:108B28000393019BDB080293019B03F00703019366
:108B3800039A029B13441B785AB20121019B01FA44
:108B480003F35BB2134359B2039A029B1344CAB2AC
:108B58001A7000BF04B0704782B00190044A019BAC
:108B68001344303393F90030184602B0704700BF01
:108B7800F437002082B00190034A019B52F8233059
:108B8800184602B0704700BFF437002000B599B00E
:108B98000023149306AB00221A605A604FF48073C6
:108BA800ADF84A30012316930023139321E0BDF852
:108BB8004A301846FFF786FE0346002B0ED016985B
:108BC800FFF7BEFE0346002B08D0BDF84A30184612
:108BD800FFF78DFE149A169B13431493169B5B00A4
:108BE8001693BDF84A300433ADF84A30139B01336D
:108BF8001393139B072BDAD94FF4BE70FFF762FE6D
:108C08000346002B0DD04FF4BE70FFF770FE149B87
:108C180043F00043149306AB1A4602210020FFF7E5
:108C28002BFF149BDBB2002B29D0012316930023C2
:108C3800139321E0169A149B1340002B16D0139817
:108C4800FFF78AFE11901398FFF796FE03468DF8FA
:108C580043301398FFF78EFF0F900F9B002B05D022
:108C68009DF843200F9B114611989847169B5B006F
:108C78001693139B01331393139B072BDAD9149B79
:108C8800002B80F2F08000238DF85F3004AB0022C7
:108C98001A605A60002315930AE0159B9B0018AAD6
:108CA80013444FF0FF3243F8582C159B01331593AA
:108CB800159B012BF1D900238DF85F300023139306
:108CC80078E06B4A139B1344603393F900308DF8B6
:108CD8003B309DF83B3023F0C0030D93644A139B4F
:108CE8001344603393F90030B3F1FF3F5FD002AB18
:108CF80019460D98FFF7F8FE0346002B57D09DF84C
:108D08003B309B098DF833300D98FFF725FF03465C
:108D18001846FFF72FFF0B900B9B002B03D19DF8F4
:108D28003330032B43D19DF83330032B04D104ABEC
:108D380019460D98FFF7F0FE0D98FFF77FFE0346E2
:108D48008DF82B3006AB19460D98FFF7CDFE09902C
:108D5800099B002B03D09DF82B30022B06D0099BD2
:108D6800002B24D19DF82B30032B20D19DF83330D4
:108D7800032B13D19DF82B30022B01D1032300E0E4
:108D880002238DF823309DF8233019460D98FFF7FC
:108D980027FE9DF85F3001338DF85F300B9B002B69
:108DA80005D09DF833200B9B11460D989847139BCF
:108DB80001331393139B032B83D99DF85F30002B4A
:108DC8004CD001238DF85E306B461A4602210020F4
:108DD800FFF752FE0023159314E0159B9B0018AA79
:108DE800134453F8602C159B9B0018A90B4453F8A7
:108DF800483C9A4203D000238DF85E3005E0159B6D
:108E080001331593159B012BE7D99DF85E30002B94
:108E180003D000238DF85F3020E0002315931AE07B
:108E2800159B9B0018AA134453F8602C159B9B00B4
:108E380018A90B4443F8482C159B9B0018AA134407
:108E480053F8502C159B9B0018A90B4443F8582C39
:108E5800159B01331593159B012BE1D99DF85F30C4
:108E6800002B7FF428AF00BF19B05DF804FB00BFEA
:108E7800F437002000B585B0134A144BD31ADB0829
:108E88000293134B01221A700023039310E0039BF3
:108E9800DB000E4A13440193019B1B68984700901E
:108EA800009B002B01D0009B0AE0039B0133039336
:108EB800039A029B9A42EAD3054B02221A700023B6
:108EC800184605B05DF804FB3873040030730400DD
:108ED80060380020084B1B78DBB2022B04D0064B0D
:108EE8001B78DBB2012B01D1012300E0002303F042
:108EF8000103DBB218467047603800206B461846FD
:108F08007047000008B5FFF7F9FF0246034B9A4285
:108F180001D2012300E00023184608BD00E0032029
:108F280000B587B00390029113468DF80730039B74
:108F3800002B02D148F2135330E0029B002B02D1E0
:108F480048F214532AE0174B1B68174A934202D081
:108F580048F2025322E0154B18689DF80730029A30
:108F6800039900F0DDFA0590059B48F2715293428F
:108F780013D100220021002000F0A8F80590059BDD
:108F8800002B01D0059B09E0084B18689DF80730B5
:108F9800029A039900F0C4FA0590059B184607B099
:108FA8005DF804FB683800206572E54B64380020E2
:108FB80000B585B001900091012200990198FFF752
:108FC800AFFF0390039B184605B05DF804FB000053
:108FD80080B584B000AF786039600023FB60FFF78C
:108FE80091FF0346002B0DD02F4A304BD31ADB08D4
:108FF8001B0443F001032E49184601F01FF948F2FB
:1090080019534CE0FFF766FF034683F00103DBB218
:10901800002B02D04FF4054341E0264B1B68002B80
:1090280006D0254B1B68254A934201D1002336E020
:109038007B68002B02D048F2175330E03B68002BC6
:1090480002D048F217532AE01A4B1D4A1A601D4BEA
:109058003B603B68002B10D1ADF5BF53083B9D46E4
:109068006B460733DB08DB00FB60FB68002B02D193
:1090780048F2155313E0FB683B600E4B1B683968D8
:10908800184600F017FAB860BB68002B06D10A4BE7
:109098000A4A1A60074B1B680B4A1A60BB681846D5
:1090A8001037BD4680BD00BF6873040038730400E4
:1090B8007079040064380020683800206572E54B38
:1090C8006C380020543900206169614D80B586B044
:1090D80000AFF860B9607A6000237B61FFF712FF88
:1090E8000346002B0DD0244A244BD31ADB081B045B
:1090F80043F001032249184601F0A0F848F2195339
:1091080035E07B68002B05D0BB68002B02D148F204
:1091180010532CE01B4B1B681B4A934202D048F2A9
:10912800025324E0FB68002B02D048F217531EE0DC
:10913800164BFB60FB68002B10D1ADF5BF53083B05
:109148009D466B460733DB08DB007B617B69002BA0
:1091580002D148F215530AE07B69FB600C4B186892
:109168007B68BA68F96800F013FA38613B691846F9
:109178001837BD4680BD00BF68730400387304000B
:1091880070790400683800206572E54B5439002076
:109198006438002000B583B00190019B002B03D1F7
:1091A8000649722010F080FB019B00221A60BFF371
:1091B8005F8F00BF03B05DF804FB00BF8C7904002B
:1091C80008B50248FFF7E6FF00BF08BD345100208C
:1091D80084B0019003230393019B002B02D1002349
:1091E800039302E00323039300BF039B184604B0D4
:1091F8007047000000B585B0FFF7E2FF134B01226E
:10920800C3F800251DF0A2FB0390104B0022C3F801
:1092180000250398FFF7DCFF0290029B0193019B56
:10922800002B01D0019B0CE000210020FFF7D0FEAD
:109238000290029B0093009B002B01D0009B00E052
:10924800029B184605B05DF804FB00BF00A0025061
:1092580000B583B000210020FFF7BAFE0190019B02
:109268000093009B002B01D0009B0AE0074B0122D2
:10927800C3F800251DF096FB044B0022C3F8002517
:109288000023184603B05DF804FB00BF00A002509D
:1092980000B585B00190019B002B03D10A498520B8
:1092A80010F002FB0121019804F091F80390BFF33C
:1092B8005F8F039B002B0CBF01230023DBB21846F2
:1092C80005B05DF804FB00BFD079040000B583B099
:1092D8000190019B002B03D10A49922010F0E4FA77
:1092E800019B1B68012B03D00649932010F0DCFA80
:1092F800BFF35F8F019B00221A6000BF03B05DF8C7
:1093080004FB00BFD079040008B50348FFF7C0FF8D
:109318000346184608BD00BF3451002008B502486E
:10932800FFF7D4FF00BF08BD3451002084B001907E
:10933800019B4A4A93422CD8494A934261D2494AEE
:10934800934212D8484A93426BD2484A934260D01B
:10935800464A934202D8002B4CD076E0444A9342C6
:1093680053D0444A934258D06FE0434A934264D062
:10937800414A934206D8414A934256D0404A9342C2
:109388005FD062E03F4A93423FD03F4A93423CD08D
:109398005BE03E4A93424CD03C4A934213D83C4A45
:1093A80093423AD03A4A934206D83A4A934234D042
:1093B800394A934239D048E0384A934231D0384A42
:1093C80093421AD041E0374A93422ED0354A93420D
:1093D80006D8354A93422CD0344A934219D034E007
:1093E800334A93421DD0A3F57003A3F63443012BEF
:1093F8002BD80AE0002303932BE048F2175303937A
:1094080027E048F27053039323E048F20353039391
:109418001FE048F2135303931BE048F210530393E1
:1094280017E048F21153039313E048F214530393DF
:109438000FE048F2015303930BE048F20253039301
:1094480007E048F27153039303E048F2165303937D
:1094580000BF039B184604B0704700BF120CF00011
:10946800100CF000050CF000040CF000000CF000EB
:10947800010CF000030CF000080CF000060CF000E2
:10948800070CF0000D0CF0000F0CF000250CF0009C
:10949800220CF000200CF000210CF000230CF0004E
:1094A800240CF000310CF000270CF000300CF00018
:1094B800320CF00000B589B001900091009B079331
:1094C800019B0693069B1B68144A934201D1002313
:1094D80020E0FFF719FF03468DF817309DF8173085
:1094E80083F00103DBB2002B02D048F2045311E0F1
:1094F80000F0CEF8069B0433079918461CF0CAFB07
:1095080004900498FFF712FF039000F0D9F8FFF7D2
:1095180005FF039B184609B05DF804FB6169614DBE
:1095280000B589B00390029101928DF80330039B36
:10953800043307939DF80330002B0ED0FFF7E4FEA9
:1095480003468DF81B309DF81B3083F00103DBB216
:10955800002B02D048F2045316E000F099F8019B62
:109568009BB2029A194607981CF0F8FB059000F088
:10957800A7F80598FFF7DAFE04909DF80330002B52
:1095880001D0FFF7CBFE049B184609B05DF804FB39
:1095980000B58BB0039002910192009300230993C8
:1095A800029B0893039B04330793009B0C2B02D95F
:1095B80048F211533AE0009B03F00303002B02D05A
:1095C80048F2165332E0FFF79FFE03468DF81B3032
:1095D8009DF81B3083F00103DBB2002B02D048F268
:1095E800045323E000F054F8009B002B0ED0009B9E
:1095F8009BB21A46019907981CF060FD05900598E2
:10960800FFF794FE0990099B002B09D10899079848
:109618001CF012FD05900598FFF788FE099000E000
:1096280000BF00F04DF8FFF779FE099B18460BB014
:109638005DF804FB82B003468DF807309DF80730CB
:1096480003F01F0205499DF907305B09012000FA64
:1096580002F241F8232000BF02B0704700E100E0A9
:1096680082B003468DF807309DF8073003F01F02DB
:1096780006499DF907305B09012000FA02F2203300
:1096880041F8232000BF02B0704700BF00E100E0AE
:1096980008B5094B1B680133074A1360064B1B6862
:1096A800012B06D1054B0122C3F800252A20FFF71C
:1096B800C1FF00BF08BD00BF3851002000A0025004
:1096C80008B5094B1B68013B074A1360064B1B682A
:1096D800002B06D1054B0022C3F800252A20FFF7EE
:1096E800BFFF00BF08BD00BF3851002000A00250D6
:1096F80000B585B00190019B002B0AD0074B43F0C1
:1097080001030393019B9B010293039B02989847D3
:1097180000E000BF05B05DF804FB00BF207A04003C
:1097280000B583B00190019B002B0AD04FF47A70EA
:10973800FFF7DEFF019B013B0193019B002BF5D155
:1097480000E000BF03B05DF804FB08B505F0D0FFEA
:1097580000BF08BD00B589B0039002910192019B3A
:10976800002B33D00023079303230693029A079B09
:109778001344019A1946002005F046FF0590079A00
:10978800059B13440793019A059BD31A0193059BE4
:10979800002B13D10F4B1B7883F00103DBB2002B96
:1097A80013D10120FFF7BCFF069B013B0693069BE4
:1097B800002B03D1074B00221A7007E0054B01224A
:1097C8001A70019B002BD1D100E000BF00BF09B087
:1097D8005DF804FB3C51002000B585B00390029170
:1097E800054B00934023054A0299039800F012F8AC
:1097F80000BF05B05DF804FB5D97020040510020F2
:1098080082B0019000BF02B0704782B0019000BFE3
:1098180002B0704700B5A1B005900491039202937D
:10982800049805F016F8039B1593029B16930023E2
:10983800179300238DF8603000231993229B1A9305
:1098480000231F930FA91F9B0822049805F0DAF83C
:1098580008231F93119B1293BDF84030ADF84C308C
:10986800BDF84230ADF84E3000238DF851309DF8E8
:109878003C3003F00303DBB2012B26D10F9BC3F36B
:1098880095231C939DF83C30C3F3C203DBB28DF8DB
:109898005030BDF83C30C3F38313DBB21B931B9BE2
:1098A8009A0009A91F9B049805F0ACF81B9B9B0024
:1098B8001F9A13441F9312AA09A915AB00931346C4
:1098C8001B9A1C9801F030F82FE09DF83C3003F00B
:1098D8000303DBB2022B28D1BDF83E30C3F3891352
:1098E8009BB21E939DF83C30C3F3C203DBB28DF8E4
:1098F80050301E9B082B28BF08231D9307A91F9BC8
:109908001D9A049805F07EF81F9A1D9B13441F9317
:109918001E9A1D9BD31A1E9315AB12AA07A81D9950
:1099280001F0A4F81E9B002BE3D1049804F0A0FFDB
:1099380000BF21B05DF804FB00B583B00190019B26
:109948001B781A460C4B9B5C002B05D0019B0433FB
:109958001846FEF7E3FA0BE0019B1B781A46064B04
:109968009B5C002B04D1019B0C331846FDF77AFC55
:1099780000BF03B05DF804FB7437002000B587B062
:109988000390029113468DF8073000230593039B3B
:109998001B781A46114B9B5C002B09D0039B0433A0
:1099A8009DF8072002991846FEF7E6FA05900FE0A1
:1099B800039B1B781A46094B9B5C002B08D1039B21
:1099C8000C339DF8072002991846FDF7C1FC059055
:1099D800059B184607B05DF804FB00BF74370020EC
:1099E80082B001900091034B01221A7000BF02B0AF
:1099F800704700BFC051002030B58DB003468DF8C8
:109A080007301A4B02AC1D460FCD0FC495E80F0066
:109A180084E80F00062302934FF0FF3303934FF0BF
:109A2800FF3304934FF0FF3305934FF0EB73089324
:109A38009DF80730002B01D00D4A00E0002202AB50
:109A480019460C48FCF786FD0B900B9B0A930A9B62
:109A5800002B04D0084A43210A9801F0C5F8074AA8
:109A68009DF80730137000BF0DB030BD8C7A04002C
:109A7800E999020074360020287A0400C1510020B8
:109A880000B583B000238DF807309DF807301846DD
:109A9800FFF7B2FF00BF03B05DF804FB00B589B063
:109AA800039002910192019B8DF81F30124B002206
:109AB8001A709DF81F301A4602991048FFF75EFF8A
:109AC8000690069B0593059B002B04D00C4A532156
:109AD800059801F089F800BF0A4B1B78002B07D0C6
:109AE800054B1B78DBB283F00103DBB2002BF3D10B
:109AF80000BF09B05DF804FBC05100207436002097
:109B0800287A0400C151002000B585B00390029165
:109B1800054B00934023054A02990398FFF77AFE04
:109B280000BF05B05DF804FBA59A02008051002033
:109B380082B0019000BF02B07047000000B583B04A
:109B480001900548FFF7F8FE0020FFF755FF00BF1A
:109B580003B05DF804FB00BF7436002082B00190AA
:109B6800019BDB6801225A7100BF02B070470000F8
:109B780000B583B04FF0FF330193FFF7E6FD0421F2
:109B8800114800F0E1FD0190019B002B03DA0F4919
:109B980041200FF089FE0C48FFF7E0FFFFF770FF48
:109BA80004210B4800F0D0FD0190019B002B03DA43
:109BB800064948200FF078FE0548FFF7CFFF00BFA1
:109BC80003B05DF804FB00BF08740400DC7A0400ED
:109BD8001874040000B583B001900091019B1B68C4
:109BE8001B6800990198984700BF03B05DF804FB13
:109BF80000B583B00190019B1B685B68019898478A
:109C080000BF03B05DF804FB00B583B00190019B71
:109C18001B689B680198984700BF03B05DF804FB78
:109C280082B001900B468DF80330019BDB689DF8EC
:109C380003201A7100BF02B0704782B00190019BE7
:109C4800DB681B79184602B0704782B00190019B0F
:109C5800DB6801225A7100BF02B0704782B00190E0
:109C6800019BDB685B79184602B0704700B585B088
:109C780001900091184B41F6FF729A60164B002232
:109C88001A60154B00225A60134B03F50043183332
:109C980000221A60104B03F50043143300221A60A7
:109CA8000D4B03F50043203301221A700B4804F0D2
:109CB80035FD0390039B002B01D0039B08E0084867
:109CC80004F0ECFE074A084BD31ADB080293002382
:109CD800184605B05DF804FB2C5300201C730400E3
:109CE800447B04000874040038730400024A034BE0
:109CF800D31ADB0818467047087404003873040048
:109D080000B587B001900B468DF803309DF80330FD
:109D1800002B1FD0FFF7EAFF04900023059313E000
:109D2800059B9B000E4A13440393039B1B881A460A
:109D3800019B1B689A4204D1019B059A1A60002373
:109D480009E0059B01330593059A049B9A42E7D3E2
:109D5800052300E00023184607B05DF804FB00BFA8
:109D68007436002000B585B001900B468DF803309D
:109D78009DF8032001AB11461846FFF7C1FF0346C3
:109D8800002B07D1019BDB00054A13440393039B77
:109D98001B6800E00023184605B05DF804FB00BF0F
:109DA8003873040084B001900B468DF80330019B92
:109DB800DB00174A134402939DF80330013B032B41
:109DC8001CD801A252F823F0E19D0200E99D02008F
:109DD800F19D0200FB9D020002238DF80F3011E077
:109DE80004238DF80F300DE0029B1B798DF80F309E
:109DF80008E0029B5B798DF80F3003E000238DF8B3
:109E08000F3000BF9DF80F30184604B0704700BFF0
:109E18003873040084B00190009100238DF80F304E
:109E2800019B1B7803F00403DBB2002B24D0019BB9
:109E38001B78C3F30103DBB2012B02D0022B0CD039
:109E480017E0009B1B68019A1288C2F38312D2B2F2
:109E580013449A1C009B1A600BE0009B1B68019A34
:109E68005288C2F3891292B213449A1C009B1A605A
:109E780000BF01238DF80F309DF80F30184604B04D
:109E88007047000000B58BB00023ADF826303E487F
:109E980003F05CFB3D4803F059FB3D4B5B680493C2
:109EA8003B4B9B680693049A069B134002339B0026
:109EB800374A13440433089304AB19460898FFF74C
:109EC800A9FF0346002B09D0049A069B13400233CE
:109ED8009B002F4A134404330893EDE700BF002387
:109EE800079311E0049B5A1C0492069A1340079AA0
:109EF800920001A90A44264902339B000B445B687F
:109F08001360079B01330793079B012BEAD99DF840
:109F18000430C3F30103DBB2012B10D0022B1CD198
:109F2800BDF80A30ADF82630BDF80630C3F3891302
:109F38009BB203339A08049B1344049313E0BDF8BF
:109F48000A30ADF82630BDF80430C3F38313DBB212
:109F58001A46049B1344049305E00E494FF4BF705E
:109F68000FF0A2FC00BF094803F0FCFA0590059B1E
:109F7800002B02D0049B064A5360BDF826301846D1
:109F88000BB05DF804FB00BF44D3002040D3002091
:109F98002C530020547B040000B585B000210748ED
:109FA80003F015FA0390039B0293029B83F31003BB
:109FB8000193019B184605B05DF804FB48D30020C7
:109FC80000B589B00390029101920093039B1B0C8A
:109FD8000793FFF7E1FF0690FFF788FE0246079B0D
:109FE800934204D3214940F2A3100FF05DFC069B75
:109FF8001904009B5A1C0A9B1340079A0A431C49E0
:10A0080002339B000B445A60009A0A9B13400233A8
:10A018009B00174A134404330593039B03F007037B
:10A02800D9B2059A137861F3C5031370019B03F045
:10A038000F03D9B2059A138861F389131380029B21
:10A04800C3F31501059A136861F39F231360059AFA
:10A058001378012161F301031370059A13786FF3E4
:10A068008203137000BF09B05DF804FB547B040041
:10A078002C53002000B58DB00390029113468DF843
:10A088000730039B02330A9301238DF827300023FE
:10A098008DF81B300DF11B03184601F0ABFC404B4B
:10A0A8001A68029B1A603E4B9A683D4B59683C4BB4
:10A0B8001B68CB1A134401330B9314E00121394870
:10A0C80003F014FAFFF7DEFE07900799354803F00E
:10A0D8000DFA334B9A68324B5968314B1B68CB1ACF
:10A0E800134401330B930A9A0B9B9A42E6D89DF8C6
:10A0F8002730002B48D0002305939DF80730002B0C
:10A1080017D09DF81430012262F301038DF8143042
:10A118009DF8143043F004038DF81430039B03F0CA
:10A128000F03DAB2BDF8143062F38913ADF81430B6
:10A1380016E09DF81430022262F301038DF8143002
:10A148009DF8143043F004038DF81430039BC3F3D7
:10A1580009039AB2BDF8163062F38F13ADF81630C2
:10A168000F4B1A680E4B9B68134002339B000C4A36
:10A17800134404330893059A089B1A60084B1A681D
:10A188000A9B1344064A13609DF81B30184601F0D9
:10A1980047FC9DF8273018460DB05DF804FB00BF5A
:10A1A8002C53002048D3002000B58BB005900491B3
:10A1B80003920293204B9B68079306AB0122194632
:10A1C8000298FFF757FF0346002B24D0069B023363
:10A1D80009930023089311E0089B9B00039A1A44F3
:10A1E800099B591C099107990B40126812490233BF
:10A1F8009B000B445A60089B01330893089A029B02
:10A208009A42E9D3069A079B00931346029A049947
:10A218000598FFF7D5FE084B03F5004320331B785C
:10A22800002B05D000BF00F07BF80346002BFAD1C5
:10A2380000BF0BB05DF804FB2C53002000B583B0C1
:10A24800019000910023002200990198FFF7ACFFCC
:10A2580000BF03B05DF804FB00B587B0039002911E
:10A268000192019B059305AA012302990398FFF720
:10A278009BFF00BF07B05DF804FB00B587B00390F3
:10A28800029101920093019B0493009B059304AAF9
:10A29800022302990398FFF787FF00BF07B05DF814
:10A2A80004FB00B589B00390029101920093019BD1
:10A2B8000593009B06930A9B079305AA032302991B
:10A2C8000398FFF771FF00BF09B05DF804FB00B504
:10A2D8008BB00390029101920093019B0593009B20
:10A2E80006930C9B07930D9B08930E9B099305AA55
:10A2F800052302990398FFF757FF00BF0BB05DF8DD
:10A3080004FB0000054B5A68044B1B689A420CBFBB
:10A3180001230023DBB21846704700BF2C530020EE
:10A3280000B599B0FFF7EEFF0346002B01D00023DC
:10A33800C8E19C4B03F50043183300221A60BFF3B1
:10A348004F8F984B5B680493964B9B681093049AC5
:10A35800109B134002339B00924A13440433119319
:10A36800002317930023169300230F9304AB194679
:10A378001198FFF74FFD0346002B1BD0894B03F5BF
:10A38800004318331B68002B14D1864B1A68049BB2
:10A398009A4205D8834B1B68824A5360002391E197
:10A3A800049A109B134002339B007E4A13440433E3
:10A3B8001193DBE70023159311E0049B5A1C0492C8
:10A3C800109A1340159A920001A90A44754902335C
:10A3D8009B000B445B681360159B01331593159B19
:10A3E800012BEAD99DF8043003F00303DBB2022BFA
:10A3F80040F09C80BDF80630C3F389139BB20D93DF
:10A40800BDF80630C3F389139BB2502B28BF5023E5
:10A418009BB20C930C9BC3F309039AB2BDF80630A8
:10A4280062F38F13ADF806300C9B08330B939DF83D
:10A438000430C3F3C203DBB20F930B995A4804F0FC
:10A4480078F91790179B002B00F0D080179804F02C
:10A4580000FA01A9169B0822179804F0B5FA169B72
:10A4680008331693049BDA43109B134001339B0077
:10A478000A930C9A0A9B9A4242D90A9B002B08D04D
:10A48800049A109B134002339B00464A134404333A
:10A4980000E0464B08930A9B002B02D00A9BDBB2D4
:10A4A80001E00C9BDBB28DF81F300A9B002B01D01A
:10A4B8003E4B00E0002306930A9B002B06D00C9B22
:10A4C800DAB20A9BDBB2D31ADBB200E000238DF8C4
:10A4D80017309DF81F20169B0899179804F074FAF6
:10A4E8009DF81F30169A13441693069B002B16D01E
:10A4F8009DF81720169B0699179804F065FA0EE048
:10A50800049A109B134002339B00264A13440433D9
:10A518000993169B0C9A0999179804F055FA0D9B04
:10A5280003339A08049B134404935FE09DF80430B6
:10A5380003F00303DBB2012B58D1BDF80430C3F399
:10A548008313DBB2062B28BF0623DAB2BDF804302A
:10A5580062F38913ADF80430BDF80430C3F38313F4
:10A56800DBB202330E939DF80430C3F3C203DBB2AF
:10A578000F930E9B9B0019460B4804F0DAF81790CE
:10A58800179B002B32D0179804F063F901A9169B8A
:10A598000822179804F018FA169B0833169300231C
:10A5A80015931AE02C5300201C7304003853002024
:10A5B800049B5A1C0492109A134002339B00434A8E
:10A5C8001344191D169B0422179804F0FDF9169BD5
:10A5D80004331693159B01331593BDF80430C3F368
:10A5E8008313DBB21A46159B9342E1D3179B002BCA
:10A5F80046D0364B03F5004310331B681493334B96
:10A6080003F5004318331B68002B1BD0179804F080
:10A618002FF951E000238DF84F301498FFF71EFBF7
:10A628000346002B02D001238DF84F309DF84F30A0
:10A63800002B03D017991498FFF7CCFA149BDB680A
:10A648001B681493149B002BE4D1179804F010F99D
:10A6580000238DF803300DF10303184601F0CAF901
:10A668001A4B03F5004318331B68002B02D1049BD7
:10A67800164A53609DF80330184601F0D1F91BE0E3
:10A68800124B03F5004310331B68129306E012982F
:10A69800FFF7BAFA129BDB681B681293129B002B18
:10A6A800F5D10B4A0B4BD31ADB081B0443F002030A
:10A6B80009491846FFF7C2FDFFF724FE034683F059
:10A6C8000103DBB2184619B05DF804FB2C530020D7
:10A6D8006873040038730400B47B040000B585B0C7
:10A6E8000023039325E0174B03F5004310331B6841
:10A6F800029301238DF807300FE00298FFF79DFAC7
:10A7080003461A46039B934203D100238DF8073072
:10A7180006E0029BDB681B680293029B002BECD1CE
:10A728009DF80730002B01D0039B07E0039B013302
:10A738000393039B092BD6DD4FF0FF33184605B072
:10A748005DF804FB2C53002000B585B001900B4642
:10A758008DF80330FFF7C2FF0390039BB3F1FF3F6F
:10A7680001D1039B2AE0039BDBB219460198FFF74E
:10A7780057FA144B03F5004310331B68002B0AD11A
:10A78800104B03F500431033019A1A60019BDB68F4
:10A7980000221A6011E00B4B03F5004310331B68CD
:10A7A800DA68019BDB6812681A60064B03F5004300
:10A7B80010331B68DB68019A1A60039B184605B0C2
:10A7C8005DF804FB2C53002000B583B00E4B03F555
:10A7D800004310331B6801930B4B03F500432033F0
:10A7E80001221A7009E00198FFF72FFA0198FFF784
:10A7F800FFF9019BDB681B680193019B002BF2D1D9
:10A8080000BF03B05DF804FB2C53002082B0019018
:10A81800009100BF02B0704710B584B00390029158
:10A82800039BDB88002B0AD0039BDB881A461F4B4F
:10A83800009313461E4A1F49029802F0D1FF039B5A
:10A848001B7A052B2ED0039B5B7A002B12D0039B1F
:10A858009B881A46039B1B7A19461046FFF7A2FAF3
:10A8680003461A46144B53F822301A4613490298E5
:10A8780002F0B6FF039B1B6819460298FFF7C6FF54
:10A88800039B1B7A1A460E4B53F82240039B9B8866
:10A8980000211846FFF766FA03462246094902983E
:10A8A80002F09EFF00BF04B010BD00BFE87B0400AB
:10A8B800F87B0400307C0400AC360020487C04009F
:10A8C800983600204C7C040000B585B003900291B6
:10A8D80013468DF80730039B1B7A052B0FD0039B7B
:10A8E8005B7A002B06D00D4B1B681A460C49029860
:10A8F80002F076FF0B49029802F072FF07E09DF81C
:10A908000730002B03D00749029802F069FF02982C
:10A9180002F044FF00BF05B05DF804FBAC36002030
:10A92800487C0400587C040030B58BB00790069131
:10A93800059204930E9B1B7B8DF827300E9B0022FB
:10A948001A730E990498FFF767FF059B062B7FD8AB
:10A9580001A252F823F000BF7DA9020087A90200D6
:10A9680097A90200ABA90200C9A90200F1A9020037
:10A9780021AA020007990E9802F032FF69E0069BAF
:10A988001B681A4607990E9802F02AFF61E0069B99
:10A998001A68069B04331B6807990E9802F020FF7B
:10A9A80057E0069B1A68069B04331968069B083310
:10A9B8001B6800930B4607990E9802F011FF48E0B8
:10A9C800069B1968069B04331868069B08331B68A6
:10A9D800069A0C3212680192009303460A460799B8
:10A9E8000E9802F0FDFE34E0069B1868069B0433BF
:10A9F8001C68069B08331B68069A0C321268069975
:10AA08001031096802910192009323460246079982
:10AA18000E9802F0E5FE1CE0069B1C68069B0433BA
:10AA28001D68069B08331B68069A0C321268069943
:10AA38001031096806981430006803900291019259
:10AA480000932B46224607990E9802F0C9FE00E0B3
:10AA580000BF00220E990498FFF736FF0E9B9DF861
:10AA680027201A7300BF0BB030BD00BF00B587B0F8
:10AA78000390029101920093029B082B5CD8009BE3
:10AA88001B7B8DF81330009B00221A7300990198E4
:10AA9800FFF7C2FE0023059314E0059A029B9A4231
:10AAA80009D2039A059B13441B781A462449009837
:10AAB80002F096FE03E02349009802F091FE059B00
:10AAC80001330593059B072BE7D91F49009802F02E
:10AAD80087FE0023059322E0059A029B9A4217D22B
:10AAE800039A059B13441B788DF812309DF8123099
:10AAF80018461AF033FA0346002B02D09DF812309C
:10AB080000E02E231A461149009802F069FE03E07E
:10AB18000F49009802F064FE059B01330593059BDD
:10AB2800072BD9D9012200990198FFF7CDFE009B88
:10AB38009DF813201A7300E000BF07B05DF804FB0E
:10AB48005C7C0400647C0400687C04006C7C040069
:10AB5800707C040086B003900291019201238DF865
:10AB680017309DF817301F4A039B13601D4A029B3C
:10AB780053601C4A019B9360039B44F20102934279
:10AB880012D044F20202934221D1019B154AD360AC
:10AB9800144BDB681B881A46124B9A61114BDB6811
:10ABA8005B68104AD36112E0019B0E4A13610D4B9A
:10ABB8001B699B680B4A53610A4B1B691B68094A4E
:10ABC8009361084B1B695B68064AD36100BF72B684
:10ABD80000BF9DF81730DBB2002BFAD162B600BF78
:10ABE80006B0704750D3002000B583B002900091A2
:10ABF800019244F2010071466A4600F003F803B07E
:10AC080000BD00BF30B58BB007900691059272B6B3
:10AC1800FFF7DAFD00BFFFF783FB0346002BFAD1ED
:10AC2800079B41F2010293421BD041F20102934279
:10AC380002D8012B09D05FE044F2010293422ED0E2
:10AC480044F20202934218D056E0394A394BD31ADB
:10AC5800DB081B0443F0010337491846FFF7EEFAF7
:10AC680057E0334A334BD31ADB081B0443F0010384
:10AC780032491846FFF7E2FA4BE0059B09932C4A44
:10AC88002C4BD31ADB081B0443F00100099B5B68BB
:10AC98001A46099B1B882A49FFF7EFFA39E0059BFA
:10ACA8000893234A234BD31ADB081B0443F00104FF
:10ACB800089B9D68089B9B68184603F069FF03463C
:10ACC8001846089B5B681946089B1B68069A0292FF
:10ACD8000193009103462A461A492046FFF7F7FADE
:10ACE800134A144BD31ADB081B0443F0010316491B
:10ACF8001846FFF7A3FA0CE00D4A0E4BD31ADB08EF
:10AD08001B0443F00103069A10491846FFF7A4FAFA
:10AD180000BF0F4B1B6803F00103002B00D000BEDF
:10AD2800059A06990798FFF715FF00BF0BB030BDCD
:10AD38006873040038730400747C0400947C040075
:10AD4800B87C0400D47C0400FC7C0400107D040062
:10AD5800F0ED00E082B003468DF807309DF807302B
:10AD680003F01F0205499DF907305B09012000FA2D
:10AD780002F241F8232000BF02B0704700E100E072
:10AD880082B003468DF807309DF8073003F01F02A4
:10AD980006499DF907305B09012000FA02F22033C9
:10ADA80041F8232000BF02B0704700BF00E100E077
:10ADB80082B003468DF807309DF8073003F01F0274
:10ADC80006499DF907305B09012000FA02F2403379
:10ADD80041F8232000BF02B0704700BF00E100E047
:10ADE80082B003468DF807309DF8073003F01F0244
:10ADF80006499DF907305B09012000FA02F2603329
:10AE080041F8232000BF02B0704700BF00E100E016
:10AE180082B0034600918DF807309DF90730002B6A
:10AE28000CDA009BDAB20C499DF8073003F00F03E7
:10AE3800043B5201D2B20B441A7609E0009BDAB205
:10AE480006499DF907305201D2B20B4483F800231A
:10AE580000BF02B0704700BF00ED00E000E100E075
:10AE680000B585B00190019B002B0AD0074B43F039
:10AE780001030393019B9B010293039B029898474C
:10AE880000E000BF05B05DF804FB00BF307D0400A2
:10AE980000B583B00190064A019BC2F80835062127
:10AEA8001120FFF7B5FF00BF03B05DF804FB00BF3A
:10AEB8000010014008B50D4B4FF48032C3F844230D
:10AEC8000A4B4FF48032C3F804231120FFF788FFA0
:10AED8001120FFF73FFF054B01221A602F20FFF7D3
:10AEE800BFFF034B01221A7000BF08BD00100140CC
:10AEF8008ED4002008B51120FFF742FF0E4B4FF407
:10AF08008032C3F848230C4B4FF48032C3F808232F
:10AF1800094B01225A602F20FFF7A2FF064B01229E
:10AF28009A60064B00221A602F20FFF799FF044B06
:10AF380000221A7000BF08BD0010014080D4002014
:10AF48008ED40020024BD3F804351846704700BF52
:10AF58000010014082B001900091019A009BD31A21
:10AF680023F07F43184602B07047000082B001907A
:10AF7800034A019BC2F8403500BF02B0704700BFCA
:10AF88000010014086B00190284B1B68002B03D1AC
:10AF9800264A019B136045E0019B1A68234B1B68F6
:10AFA8001B689A4210D8214B1B681968019B1A68C4
:10AFB8001E4B1B688A1A1A601C4B1A68019BDA61BF
:10AFC8001A4A019B13602DE0019B1B680393174BE2
:10AFD8001B680593154B1B68049309E0049B1B68C9
:10AFE800039AD31A0393049B0593049BDB69049388
:10AFF800049B002B04D0049B1B68039A9A42EDD84B
:10B00800049B002B05D0049B1A68039BD21A049B4F
:10B018001A60019B039A1A60019B049ADA61059BE6
:10B02800019ADA6100BF06B0704700BF7CD40020E7
:10B0380000B587B001902A4B1B680393284B1B6807
:10B048000593059B049308E0049A019B9A4208D053
:10B05800049B0593049BDB690493049B002BF3D1A9
:10B0680000E000BF049B002B01D1002333E0059AC8
:10B07800049B9A4214D11A4B1B68DB69184A136067
:10B08800174B1B68002B0BD1164B01229A60164BED
:10B0980000221A60154B01221A702F20FFF7E0FEDC
:10B0A800049B1B680293049BDA69059BDA61059B84
:10B0B800DB690493049B002B05D0049B1A68029B50
:10B0C8001A44049B1A60064B1B68039A9A4214BFE1
:10B0D80001230023DBB2184607B05DF804FB00BF6C
:10B0E8007CD400200010014080D400208FD40020A0
:10B0F80008B51120FFF75CFE00BF08BD08B5142095
:10B10800FFF756FE00BF08BD00B583B00190019B54
:10B118005B69019A92691046984700BF03B05DF8D1
:10B1280004FB000000B585B02B4B1B68002B4ED0EC
:10B1380000230193FFF706FF0246284B1B681946B8
:10B148001046FFF707FF0290234B1B6803931DE08F
:10B15800039B1B68029A9A421CD3039B1B68029AA2
:10B16800D31A0293039B1B68019A13440193039B10
:10B178000093039BDB690393009B1B7C002B05D08A
:10B18800009B00221A740098FFF7BEFF039B002B58
:10B19800DED100E000BF124B1A78124B1B789A429E
:10B1A8000CD1104B1B780133DAB20E4B1A700D4BD1
:10B1B8001B78022B02D10B4B00221A70094B1B780B
:10B1C8001946094A019B42F82130FFF797FF00BF53
:10B1D80005B05DF804FB00BF7CD4002080D40020BB
:10B1E8008CD400208DD4002084D4002082B001901B
:10B1F800184B1A78184B1B789A4223D0154B1B789A
:10B208000133DAB2134B1A70124B1B78022B02D19E
:10B21800104B00221A700F4B1B781A460F4B53F82D
:10B228002220019B1A60019B1A680D4B1B6813446E
:10B238000B4A13600A4B1B6823F07F43084A1360CC
:10B24800012303E0019B00221A600023184602B084
:10B25800704700BF8CD400208DD4002084D40020F7
:10B2680080D4002088B003900291019200230793B4
:10B2780038E0204B1B680693069B1B68039A9A428A
:10B2880006D2069B1A68039BD21A069B1A602DE009
:10B29800069B1B68039AD31A0393069B1B68079A9D
:10B2A80013440793069B00221A60124B1B680593F0
:10B2B800069BDB690F4A1360069BDB68002B11D0E5
:10B2C800029A079B134423F07F42069B5A60069B11
:10B2D800DA68069B9A60019B1A68069BDA61019BF3
:10B2E800059A1A60034B1B68002BC2D100BF08B037
:10B2F800704700BF7CD4002000B589B001900023BE
:10B308008DF81F30664B1B680593AAE0019B002B44
:10B3180005D0019B0693069BDB69019361E0614BB5
:10B328001B781A4613465B001344DB005D4A13443E
:10B33800043304935B4B1B780133DAB2594B1A7010
:10B34800584B1A78574B9B789A4202D1554B00229A
:10B358001A70049B5B680693049B1B78022B04D02D
:10B36800032B1BD0012B1FD01DE0049B5B681846E4
:10B37800FFF75EFE0346002B02D001238DF81F3035
:10B38800069B00221A746CE0454B1B680393039BD1
:10B3980000221A74039BDB69414A1360404B1B6807
:10B3A800002BF1D15DE05CE000BF069B1B7C002B0D
:10B3B80000D056E0049B9A68069B5A60049BDA68A2
:10B3C800069B9A60049B1A69069BDA60049B5A697B
:10B3D800069B9A61344B1B78002B02D0069B0022F7
:10B3E8005A60069B5A68314B1B68D31A23F07F4377
:10B3F8002F4A93420ED8069B5A682C4B1B68194655
:10B408001046FFF7A7FD0246069B9B681A44069B59
:10B418001A6017E0254B1A68069B5B6819461046A8
:10B42800FFF798FD0290069B9B68029A9A4206D203
:10B43800069B9A68029BD21A069B1A6002E0069B3A
:10B4480000221A60069B00225A60069B00229A601E
:10B45800069B01221A74069B0022DA610698FFF700
:10B4680091FD019B002B7FF451AF0E4B1A780D4BC9
:10B478005B789A427FF44AAF9DF81F30002B04D1C5
:10B48800074B1B68059A9A4201D0012300E000236C
:10B4980003F00103DBB2184609B05DF804FB00BFF6
:10B4A8007CD4002070D300208FD4002080D40020CA
:10B4B800FEFF7F0010B588B00190274B1B68002B5A
:10B4C80044D0254B1B681B680793FFF73BFD06908C
:10B4D800224B1B68059305990698FFF73BFD034629
:10B4E800033304931E4B1B7883F00103DBB2002B5C
:10B4F80001D0FFF7DFFC049A079B934238BF13463D
:10B50800059A13440593059B23F07F4305930598FB
:10B51800FFF72CFDFFF716FD039006990398FFF738
:10B5280019FD0346DC1C06990598FFF713FD034631
:10B538009C420DD9FFF706FD03461846FFF716FD96
:10B548002F20FFF78DFCFFF7D3FD01E0FFF7D2FCBA
:10B5580000BF08B010BD00BF7CD4002080D40020FC
:10B568008ED4002000B587B00023019300238DF806
:10B578001730194B1B680493184B1B6803936B46D1
:10B588001846FFF733FE03468DF80B309DF80B3055
:10B59800002B08D0009B01AA04991846FFF762FE09
:10B5A80001238DF81730019B1846FFF7A5FE0346C7
:10B5B800002B02D001238DF817309DF81730002B8F
:10B5C80002D00398FFF776FF054B00221A7000BFE0
:10B5D80007B05DF804FB00BF80D400207CD40020B5
:10B5E8008FD4002082B003468DF80730034A9DF8B7
:10B5F8000730537000BF02B0704700BF70D30020FF
:10B6080084B00190144B5B7801338DF80F30124BE6
:10B618009B789DF80F209A4202D100238DF80F30B5
:10B628000D4B1B789DF80F209A4201D100230FE0A3
:10B63800019B9DF80F201A70074B5B781A4613463A
:10B648005B001344DB00044A134404330293029B57
:10B65800184604B0704700BF70D3002000B589B009
:10B6680003900291019200930023079300238DF821
:10B6780016300DF11603184600F0BCF90DF117034A
:10B688001846FFF7BDFF0690069B002B02D1042346
:10B69800079318E0069B01221A70069B039A5A60CA
:10B6A800FFF750FC0246069B9A60069B029ADA60F6
:10B6B800069B019A1A61069B009A5A619DF81730F9
:10B6C8001846FFF78FFF9DF81630184600F0A8F9C6
:10B6D800079B002B01D1FFF711FD079B184609B006
:10B6E8005DF804FB00B587B001900B468DF8033078
:10B6F8000023059300238DF80E300DF10E03184634
:10B7080000F078F90DF10F031846FFF779FF049060
:10B71800049B002B02D1042305930BE0049B9DF8A6
:10B7280003201A70049B019A5A609DF80F3018463E
:10B73800FFF758FF9DF80E30184600F071F9059B89
:10B74800002B01D1FFF7DAFC059B184607B05DF81E
:10B7580004FB000008B50E4B0022C3F840210C4B37
:10B768000022C3F844210A4B0022C3F84821084BA1
:10B778000022C3F84C21064B0022C3F80021044BD9
:10B788000022C3F80421FFF7CDFC00BF08BD00BFAD
:10B798000010014008B5FFF7E5FE00BF08BD000036
:10B7A80008B5FFF7A7FB134B00221A70114B0022B4
:10B7B8005A70104B0B229A700F4B00221A600F4BD5
:10B7C80000221A700E4B00221A701420FFF708FB93
:10B7D80006211420FFF71CFB1420FFF7BBFA0020FA
:10B7E800FFF756FBFFF7AEFB0246064B1A60002335
:10B7F800184608BD70D300207CD400208CD40020CB
:10B808008DD4002080D4002086B003900B4601928E
:10B818008DF80B30134B9B78002B01D108231EE0C9
:10B82800019B002B01D1072319E0039B002B01D1B9
:10B83800072314E0039B1B681B7C002B01D0082303
:10B848000DE0039B1B680593059B00221A74059B5A
:10B858009DF80B205A74059B019A5A6100231846DB
:10B8680006B0704770D3002000B587B003900291EE
:10B878000192039B0593144B9B78002B01D108235D
:10B888001EE0039B002B01D1082319E0029B042B27
:10B8980001D8072314E0059B5B69002B01D108231D
:10B8A8000EE0059B5B7C012B01D1029B00E000238D
:10B8B8000493019B049A02990598FFF7CFFE03466B
:10B8C800184607B05DF804FB70D3002000B585B0BA
:10B8D8000190019B03930D4B9B78002B01D108230A
:10B8E80010E0019B002B03D0039B5B69002B01D167
:10B8F800082307E0039B00221A7402210398FFF72C
:10B90800F1FE0346184605B05DF804FB70D300202D
:10B9180082B0EFF310830093009B019372B6019BF2
:10B92800184602B0704762B600BF704700B585B0D0
:10B938000190FFF7EDFF0390164B9B68002B1BD17E
:10B94800144B01229A60144BD3F88020134B1340F8
:10B95800104A1360104B114AC3F880200E4BD3F8DD
:10B9680084300C4A53600C4B4FF0FF32C3F88420EC
:10B97800019B00221A7002E0019B01221A70039BAE
:10B98800002B01D1FFF7CFFF0023184605B05DF863
:10B9980004FB00BF90D4002000E100E0FC06FFBDDE
:10B9A80000B585B003468DF80730104B9B68002B17
:10B9B80016D09DF80730002B12D1FFF7A9FF03908E
:10B9C8000B4A0A4B1B681360094A084B5B685360B3
:10B9D800064B00229A60039B002B01D1FFF7A3FFBF
:10B9E8000023184605B05DF804FB00BF90D4002082
:10B9F80000E100E000B583B0019000F02BF80346A9
:10BA0800012B03D0054943200DF04EFF0198FFF7A5
:10BA18008DFF00BF03B05DF804FB00BF387D040054
:10BA280000B583B003468DF8073000F013F80346DD
:10BA3800012B03D0064951200DF036FF9DF8073041
:10BA48001846FFF7ADFF00BF03B05DF804FB00BF69
:10BA5800387D040084B0EFF305830193019BC3F3A1
:10BA680008030393039B002B0DD1EFF3148300937A
:10BA7800009B0293029B03F00103002B0CBF0123E0
:10BA88000023DBB200E00123184604B0704782B0FF
:10BA98000190019B03F00303002B0CBF012300233B
:10BAA800DBB2184602B0704700B585B0019000239C
:10BAB80003930EE00A4A039B52F82330002B05D06B
:10BAC800074A039B52F8233001989847039B013398
